S00C00004D415A452E73726563EB
S11300000C942A000C9447000C94F6000C941C01E8
S11300100C9447000C94DC010C9447000C944700AA
S11300200C9447000C9477020C9447000C944700FE
S11300300C9447000C940C050C9447000C94470056
S11300400C9447000C9447000C9447000C94470010
S11300500C94470011241FBECFE5D8E0DEBFCDBF0E
S113006010E0A0E6B0E0ECEBF3E102C005900D92E5
S1130070A037B107D9F721E0A0E7B0E001C01D9295
S1130080A130B207E1F70E94EF010C94DC090C9453
S113009000008B98939ABA98C29A8BB780688BBFEA
S11300A08BB780628BBF8CE485BF0895AF92BF92FB
S11300B0CF92DF92EF92FF920F931F93CF93DF9330
S11300C0D82FC62F5A01690181E080937000809374
S11300D071001092770010927600109279001092BD
S11300E07800F0927500E09274001093730000930E
S11300F072000E946802B5018D2F0E946B02B60146
S11301008C2F0E947102B12CD12CCC24C39401C039
S1130110DC2C8091780090917900E816F9066CF453
S113012061E070E08D2F0E946B02809176009091C7
S1130130770008171907ACF408C0809176009091F5
S11301407700081719075CF401C0DC2C61E070E04B
S11301508C2F0E947102D11006C0BC2CDACFDD2096
S1130160C1F2BB20A9F2DF91CF911F910F91FF90B3
S1130170EF90DF90CF90BF90AF900895EF92FF92F1
S11301800F931F9380917F00882379F00F2EF7E15E
S1130190EF2EF12CF02D07E110E024E630E044E6E8
S11301A050E060E081E00E9456001F910F91FF90A3
S11301B0EF900895EF92FF920F931F9380917F0029
S11301C0882379F00F2EFCE3EF2EF12CF02D02E1C1
S11301D010E026E930E046E950E060E080E00E946B
S11301E056001F910F91FF90EF9008951F920F9268
S11301F00FB60F9211242F938F939F9380917600C3
S11302009091770001969093770080937600809187
S1130210760090917700853F914034F084EF91E02F
S113022090937700809376009F918F912F910F90F8
S11302300FBE0F901F9018951F920F920FB60F923A
S113024011242F938F939F9380917800909179003C
S11302500196909379008093780080917800909132
S11302607900853F914034F084EF91E090937900D8
S1130270809378009F918F912F910F900FBE0F90D4
S11302801F90189595988D9A949A8C9897988F9A10
S1130290969A8E98089510927A0014BC85B584605D
S11302A085BD85B5826085BD89B7806489BF0895A1
S11302B081309105D1F5959A8AE18A95F1F700C0CC
S11302C0959810927A0014BC849904C080917A00A5
S11302D08823D1F380917A0081115FC014BC1092FD
S11302E07A0080917A0081115BC080917A0081113B
S11302F002C08499FACF64B570E064567109072E80
S1130300000C880B990B0E94BA0820E030E040E012
S113031052E40E946F0928E23EE74CE85CE30E9445
S11303206F090E948208CB0108950297E1F5979A1C
S11303308AE18A95F1F700C0979810927A0014BC6C
S1130340869904C080917A008823D1F380917A0041
S113035081112CC014BC10927A0080917A00811112
S113036002C08699FACF80917A00811122C064B5C7
S113037070E080E090E00E94B80820E030E040E0C7
S113038052E40E946F0928E23EE74CE85CE30E94D5
S11303906F090E948208CB01089582E690E00895D7
S11303A083E690E008958FEF9FEF089582E690E052
S11303B0089583E690E008951F920F920FB60F926E
S11303C011248F93F89481E080937A0084E684BDAD
S11303D078948F910F900FBE0F901F9018958A9A62
S11303E00E94F9040E94E8040E941C020E94270251
S11303F00E944B010E9442010E94490078940E948D
S1130400F604882321F00E9458050E94F9040E94F2
S11304100103099751F40E94BE00929A8FE19EE471
S11304200197F1F700C0000092980E94A904882364
S113043031F30E94DA00E3CF8EB582608EBD8CEE7C
S11304409FEF9DBD8CBD89B7846089BF0895D79AFD
S1130450D69AD59AD49ADD98DC98DF98DE980895D8
S1130460DD9ADC9A089580918100813019F4DD9839
S1130470DC9A0895DD9ADC980895DE9ADF9A08954F
S113048080918000813019F4DF98DE9A0895DF9A14
S1130490DE9808958F3F910514F08EEF90E01816C2
S11304A0190614F081E090E0909363008093620059
S11304B008958F3F910514F08EEF90E018161906F9
S11304C014F081E090E090936100809360000895BF
S11304D080937F00089580938100CB010E944A029B
S11304E0089580938000CB010E94590208951F92C1
S11304F00F920FB60F9211242F933F934F935F9354
S11305006F937F938F939F93AF93BF93EF93FF93D7
S1130510F8948CEE9FEF9DBD8CBD80917D009091F1
S11305207E00019690937E0080937D0080917B00F5
S113053090917C00019690937C0080937B002091A5
S11305407D0030917E0080916200909163002817B5
S1130550390711F40E94300280917D0090917E0051
S11305608F3F910559F054F080917F00882331F03A
S11305700E94330210927E0010927D0020917B0035
S113058030917C00809160009091610028173907B8
S113059011F40E943D0280917B0090917C008F3F7A
S11305A0910559F054F080917F00882331F00E9426
S11305B0400210927C0010927B007894FF91EF919E
S11305C0BF91AF919F918F917F916F915F914F9167
S11305D03F912F910F900FBE0F901F90189587B9E0
S11305E03E9A3D9886B1876086B9379A369A36998D
S11305F0FECF24B185B190E0982F8827820F911DFA
S113060008958F929F92AF92BF92CF92DF92EF9212
S1130610FF9280E00E94EF02BC01990F880B990BB6
S11306200E94BA086B017C0127E137EB41E559E3ED
S11306300E946F09A70196010E946F094B015C019A
S113064027E232EC46E05EE3C701B6010E946F097F
S11306509B01AC01C501B4010E949E072FE832EC56
S113066047EF51E40E949F070E948208CB01FF904C
S1130670EF90DF90CF90BF90AF909F908F900895B0
S11306804F925F926F927F928F929F92AF92BF929E
S1130690CF92DF92EF92FF92CF93DF9300D000D0FE
S11306A0CDB7DEB72DE030E0281B390B84E6829FFE
S11306B0B001839F700D1124072E000C880B990B39
S11306C00E94BA086B017C01209188003091890056
S11306D040918A0050918B000E946F0920919800EC
S11306E03091990040919A0050919B000E949F077D
S11306F04B015C01609398007093990080939A0079
S113070090939B0020E030E046E153E40E946A09A4
S113071018166CF480E090E0A6E1B3E480939800AE
S113072090939900A0939A00B0939B0016C020E088
S113073030E046E153ECC501B4010E940B08882364
S113074064F480E090E0A6E1B3EC80939800909389
S11307509900A0939A00B0939B0020916A00309175
S11307606B0040916C0050916D00C701B6010E946E
S11307706F092B013C018090940090909500A0900B
S11307809600B0909700A5019401C501B4010E94A0
S11307909F079B01AC01C701B6010E949E07A701F8
S11307A096010E949F072091900030919100409102
S11307B09200509193000E949F07209184003091F1
S11307C0850040918600509187000E946F096983DB
S11307D07A838B839C838092900090929100A09264
S11307E09200B0929300C0929400D0929500E0924F
S11307F09600F092970020919800309199004091D2
S11308009A0050919B00C301B2010E949F07298165
S11308103A814B815C810E949F074B015C0160938C
S11308208C0070938D0080938E0090938F00E090E5
S11308306400F0906500B701FF2014F46F5F7F4FF0
S113084075956795072E000C880B990B0E94BA08C2
S11308502B013C019B01AC01C501B4010E946A0952
S1130860181644F440928C0050928D0060928E00D1
S113087070928F00662777276E197F0912F46D5FD7
S11308807F4F7595679575956795072E000C880BB6
S1130890990B0E94BA086B017C0120918C00309165
S11308A08D0040918E0050918F000E946A091816A5
S11308B044F4C0928C00D0928D00E0928E00F092AD
S11308C08F0060918C0070918D0080918E009091CA
S11308D08F000E948208CB010F900F900F900F9011
S11308E0DF91CF91FF90EF90DF90CF90BF90AF90CA
S11308F09F908F907F906F905F904F90089560913C
S11309006400709165006817790744F49C01261B04
S1130910370BB90181E00E9471020895681B790BBD
S113092080E00E94710208956091640070916500F6
S11309306817790744F49C01261B370BB90181E041
S11309400E946B020895681B790B80E00E946B0281
S11309500895CF93DF938FEC97E00197F1F700C0F0
S1130960000082E090E00E9458018C3191059CF0D7
S113097082E090E00E9458014C970CF0929A9FE715
S113098028E381E0915020408040E1F700C000005E
S1130990929881E01AC00E944003EC0118161906CF
S11309A04CF480E090E00E947F04CE010E94940405
S11309B080E00BC0882799278C1B9D0B0E947F0425
S11309C080E090E00E94940480E0DF91CF9108954C
S11309D0909A8898899A10BC83E389B98AB188610E
S11309E08AB9579A80B5866880BD089580919C0025
S11309F0089510929C0080E090E0FC01E356FF4FC4
S1130A001082019684369105C1F78FEF9FEF909382
S1130A106F0080936E0008951F920F920FB60F928D
S1130A2011248F939F93EF93FF9380916E00909185
S1130A306F00019690936F0080936E0080916E001A
S1130A4090916F008436910534F083E690E09093A2
S1130A506F0080936E00E0916E00F0916F008CB196
S1130A60E356FF4F8083E0916E00F0916F00E356F0
S1130A70FF4F80818D3049F0E0916E00F0916F005E
S1130A80E356FF4F80818A3051F4E0916E00F0917B
S1130A906F00E356FF4F108281E080939C00FF912A
S1130AA0EF919F918F910F900FBE0F901F9018950B
S1130AB0CF92DF92EF92FF92CF93DF9380919D00CC
S1130AC08F3481F480919E008E3461F4929A8FE188
S1130AD09EE40197F1F700C00000929881E00E9423
S1130AE0680225C280919D008F3481F480919E001C
S1130AF0863461F4929A8FE19EE40197F1F700C085
S1130B000000929880E00E94680211C280919D00CA
S1130B10803599F580919E00873579F5929A8FE119
S1130B209EE40197F1F700C000009298EDE9F0E02F
S1130B30828190E0C09744E6489F9001499F300D20
S1130B4011249381892F90E0C097AC01440F551F65
S1130B50880F991F880F991F880F991F840F951F5D
S1130B60820F931F248130E020533109820F931F99
S1130B709093650080936400DAC180919D0087356D
S1130B8009F064C080919E00803509F05FC0929A9C
S1130B908FE19EE40197F1F700C000009298CDE93F
S1130BA0D0E06A8170E060537109072E000C880B55
S1130BB0990B0E94BA086B017C016C8170E0605350
S1130BC07109072E000C880B990B0E94BA0820E0CB
S1130BD030E040E251E40E941008A70196010E940F
S1130BE09F076B017C016D8170E060537109072ED2
S1130BF0000C880B990B0E94BA0820E030E048EC06
S1130C0052E40E941008A70196010E949F076B01FD
S1130C107C016E8170E060537109072E000C880B13
S1130C20990B0E94BA0820E030E04AE754E40E949D
S1130C301008A70196010E949F0760936A007093B1
S1130C406B0080936C0090936D0071C180919D0046
S1130C50873509F064C080919E00893409F05FC033
S1130C60929A8FE19EE40197F1F700C000009298F8
S1130C70CDE9D0E06A8170E060537109072E000C61
S1130C80880B990B0E94BA086B017C016C8170E09F
S1130C9060537109072E000C880B990B0E94BA0847
S1130CA020E030E040E251E40E941008A7019601E0
S1130CB00E949F076B017C016D8170E06053710994
S1130CC0072E000C880B990B0E94BA0820E030E034
S1130CD048EC52E40E941008A70196010E949F0765
S1130CE06B017C016E8170E060537109072E000C6A
S1130CF0880B990B0E94BA0820E030E04AE754E4DC
S1130D000E941008A70196010E949F076093880023
S1130D107093890080938A0090938B0008C180911E
S1130D209D00873509F064C080919E00843409F0E9
S1130D305FC0929A8FE19EE40197F1F700C0000032
S1130D409298CDE9D0E06A8170E060537109072E72
S1130D50000C880B990B0E94BA086B017C016C8112
S1130D6070E060537109072E000C880B990B0E94E8
S1130D70BA0820E030E040E251E40E941008A701E4
S1130D8096010E949F076B017C016D8170E06053A6
S1130D907109072E000C880B990B0E94BA0820E0F9
S1130DA030E048EC52E40E941008A70196010E942A
S1130DB09F076B017C016E8170E060537109072EFF
S1130DC0000C880B990B0E94BA0820E030E04AE737
S1130DD054E40E941008A70196010E949F076093A3
S1130DE084007093850080938600909387009FC051
S1130DF080919D00833509F064C080919E00803508
S1130E0009F05FC0929A8FE19EE40197F1F700C068
S1130E1000009298CDE9D0E06A8170E060537109D6
S1130E20072E000C880B990B0E94BA086B017C01F9
S1130E306C8170E060537109072E000C880B990BCC
S1130E400E94BA0820E030E040E251E40E94100819
S1130E50A70196010E949F076B017C016D8170E0E0
S1130E6060537109072E000C880B990B0E94BA0875
S1130E7020E030E048EC52E40E941008A7019601FB
S1130E800E949F076B017C016E8170E060537109C1
S1130E90072E000C880B990B0E94BA0820E030E062
S1130EA04AE754E40E941008A70196010E949F0794
S1130EB06093660070936700809368009093690064
S1130EC036C080919D00833591F580919E008434D5
S1130ED071F5929A8FE19EE40197F1F700C000004A
S1130EE09298EDE9F0E0828190E0C09744E6489F53
S1130EF09001499F300D11249381892F90E0C09770
S1130F00AC01440F551F880F991F880F991F880F34
S1130F10991F840F951F820F931F248130E0205363
S1130F203109820F931F9093830080938200DF9195
S1130F30CF91FF90EF90DF90CF9008955058BB274A
S1130F40AA270E94B6070C9430090E94220938F09F
S1130F500E94290920F039F49F3F19F426F40C94D7
S1130F601F090EF4E095E7FB0C941909E92F0E9480
S1130F70410958F3BA17620773078407950720F0ED
S1130F8079F4A6F50C9463090EF4E0950B2EBA2FB0
S1130F90A02D0B01B90190010C01CA01A00111247B
S1130FA0FF27591B99F0593F50F4503E68F11A1627
S1130FB0F040A22F232F342F4427585FF3CF4695B8
S1130FC037952795A795F0405395C9F77EF41F16DA
S1130FD0BA0B620B730B840BBAF09150A1F0FF0FA4
S1130FE0BB1F661F771F881FC2F70EC0BA0F621F90
S1130FF0731F841F48F4879577956795B795F79580
S11310009E3F08F0B0CF9395880F08F09927EE0F14
S11310109795879508950E94F50808F481E008954E
S11310200E9424080C9430090E94290958F00E9457
S1131030220940F029F45F3F29F00C941909511159
S11310400C9464090C941F090E94410968F39923C4
S1131050B1F3552391F3951B550BBB27AA276217B0
S11310607307840738F09F5F5F4F220F331F441FBD
S1131070AA1FA9F335D00E2E3AF0E0E832D09150F1
S11310805040E695001CCAF72BD0FE2F29D0660FDE
S1131090771F881FBB1F261737074807AB07B0E821
S11310A009F0BB0B802DBF01FF2793585F4F3AF027
S11310B09E3F510578F00C9419090C9464095F3F24
S11310C0E4F3983ED4F3869577956795B795F795AD
S11310D09F5FC9F7880F911D9695879597F9089595
S11310E0E1E0660F771F881FBB1F62177307840731
S11310F0BA0720F0621B730B840BBA0BEE1F88F740
S1131100E09508950E9489086894B1110C946409CB
S113111008950E94490988F09F5798F0B92F99279C
S1131120B751B0F0E1F0660F771F881F991F1AF0CE
S1131130BA95C9F714C0B13091F00E946309B1E0C7
S113114008950C946309672F782F8827B85F39F0C6
S1131150B93FCCF3869577956795B395D9F73EF467
S113116090958095709561957F4F8F4F9F4F08950F
S1131170E89409C097FB3EF490958095709561952D
S11311807F4F8F4F9F4F9923A9F0F92F96E9BB27E3
S11311909395F695879577956795B795F111F8CF5F
S11311A0FAF4BB0F11F460FF1BC06F5F7F4F8F4FCA
S11311B09F4F16C0882311F096E911C0772321F0C0
S11311C09EE8872F762F05C0662371F096E8862F58
S11311D070E060E02AF09A95660F771F881FDAF7AF
S11311E0880F9695879597F90895990F0008550FDC
S11311F0AA0BE0E8FEEF16161706E807F907C0F099
S113120012161306E407F50798F0621B730B840BA0
S1131210950B39F40A2661F0232B242B252B21F47A
S113122008950A2609F4A140A6958FEF811D811D1A
S1131230089597F99F6780E870E060E008959FEF54
S113124080EC089500240A94161617061806090659
S1131250089500240A941216130614060506089528
S1131260092E0394000C11F4882352F0BB0F40F4B0
S1131270BF2B11F460FF04C06F5F7F4F8F4F9F4FF0
S1131280089557FD9058440F551F59F05F3F71F072
S11312904795880F97FB991F61F09F3F79F08795D9
S11312A00895121613061406551FF2CF4695F1DF62
S11312B008C0161617061806991FF1CF86957105F2
S11312C0610508940895E894BB2766277727CB0126
S11312D097F908950E94F50808F48FEF08950E9485
S11312E082090C9430090E94220938F00E942909CD
S11312F020F0952311F00C9419090C941F09112462
S11313000C9464090E94410970F3959FC1F3950FF1
S113131050E0551F629FF001729FBB27F00DB11D75
S1131320639FAA27F00DB11DAA1F649F6627B00D05
S1131330A11D661F829F2227B00DA11D621F739FEE
S1131340B00DA11D621F839FA00D611D221F749FFC
S11313503327A00D611D231F849F600D211D822F43
S1131360762F6A2F11249F5750409AF0F1F088236A
S11313704AF0EE0FFF1FBB1F661F771F881F915097
S11313805040A9F79E3F510580F00C9419090C9424
S113139064095F3FE4F3983ED4F3869577956795A7
S11313A0B795F795E7959F5FC1F7FE2B880F911DC1
S10F13B09695879597F90895F894FFCF5F
S11313BC0A000A009600CDCCCC3E0000003FFFFF93
S9030000FC
