:100000000C942A000C9447000C9447000C94470071
:100010000C9447000C9447000C9447000C94470044
:100020000C9447000C94A0000C9447000C944700DB
:100030000C9447000C94EA010C9447000C94470080
:100040000C9447000C9447000C9447000C94470014
:100050000C94470011241FBECFE5D8E0DEBFCDBF12
:1000600010E0A0E6B0E0E0EAFAE002C005900D92F0
:10007000AC36B107D9F720E0ACE6B0E001C01D9284
:10008000AA3DB207E1F70E9449000C944E050C947A
:1000900000000E94D7010E946E010E946F000E9422
:1000A0007A000E941601B89A78940E94D40188239D
:1000B00021F00E943C020E94D7010E9419010E9477
:1000C0009C0189E690E00E9486012FEF83EC99E085
:1000D000215080409040E1F700C00000E6CF8EB58F
:1000E00082608EBD8CEE9FEF9DBD8CBD89B7846014
:1000F00089BF08958C9A8D9A8E9A8F9A9498959824
:10010000969897980895949895980895809172007C
:10011000811103C09498959A0895949A959808959A
:1001200097989698089580917100811103C09698D0
:10013000979A0895969A97980895809370000895D5
:100140001F920F920FB60F9211242F933F934F934C
:100150005F936F937F938F939F93AF93BF93EF932F
:10016000FF93F8948CEE9FEF9DBD8CBD80916E0047
:1001700090916F00019690936F0080936E00809134
:100180006C0090916D00019690936D0080936C00CF
:1001900020916E0030916F00809162009091630019
:1001A0002817390711F40E94830080916E00909106
:1001B0006F00893E934054F080917000882331F0A5
:1001C0000E94860010926F0010926E0020916C00C9
:1001D00030916D008091600090916100281739077F
:1001E00011F40E94900080916C0090916D00893E06
:1001F000934054F080917000882331F00E94930066
:1002000010926D0010926C007894FF91EF91BF9165
:10021000AF919F918F917F916F915F914F913F919E
:100220002F910F900FBE0F901F9018951ABAA39898
:100230000895CB9B07C0109274001092730080E069
:1002400090E00895CE9B07C0109274001092730046
:1002500081E090E00895CC9907C084E690E0909307
:100260007400809373000895CD9907C08CE99FEFC7
:1002700090937400809373000895CA9907C08CE22C
:1002800091E0909374008093730008959B9907C048
:1002900084ED9EEF90937400809373000895C99944
:1002A00007C088EE93E090937400809373000895E4
:1002B000CF9907C088E19CEF9093740080937300FE
:1002C00008958091730090917400181619061CF01F
:1002D00080E398EF089580ED97E00895909A8898CC
:1002E000899A10BC87E689B98AB188618AB9579A18
:1002F00080B5866880BD80E090E0FC01EA58FF4F41
:100300001082019684369105C1F70895FC01DC0145
:100310000D900020E9F711979D01281B390B12164B
:1003200013064CF4280F391F5D9BFECF81918CB9C9
:100330002E173F07C9F708950F931F93CF93DF93AD
:10034000CDB7DEB7C456D1090FB6F894DEBF0FBEE5
:10035000CDBFFE0131969E012B593F4F1192E217FE
:10036000F307E1F79F938F9386E690E09F938F9337
:100370008E010F5F1F4F1F930F930E946402C801ED
:100380000E9486010F900F900F900F900F900F908A
:10039000CC59DF4F0FB6F894DEBF0FBECDBFDF9153
:1003A000CF911F910F91089580917500089510923B
:1003B000750080E090E0FC01EA58FF4F1082019642
:1003C00084369105C1F78FEF9FEF9093650080937E
:1003D000640008951F920F920FB60F9211248F930D
:1003E0009F93EF93FF938091640090916500019635
:1003F0009093650080936400809164009091650003
:100400008436910534F083E690E090936500809304
:100410006400E0916400F09165008CB1EA58FF4FF0
:100420008083E0916400F0916500EA58FF4F80817D
:100430008D3049F0E0916400F0916500EA58FF4F7B
:1004400080818A3081F4E0916400F0916500EA587F
:10045000FF4F10828FEF9FEF9093650080936400B1
:1004600081E080937500FF91EF919F918F910F90A4
:100470000FBE0F901F901895809176008F3481F4F5
:10048000809177008E3461F4C09A8FE39CE90197E4
:10049000F1F700C00000C09881E00E949D0008951F
:1004A000809176008F3479F480917700863459F406
:1004B000C09A8FE39CE90197F1F700C00000C09853
:1004C00080E00E949D000895AEE0B0E0EAE6F2E030
:1004D0000C9425050D891E8986E08C831A83098377
:1004E0008FEF9FE79E838D83AE01475E5F4F6F89DD
:1004F000788DCE0101960E948602EF81F885E00F8B
:10050000F11F10822E96E4E00C944105ABE0B0E0C0
:10051000ECE8F2E00C9417056C017B018A01FC0108
:1005200017821682838181FFCCC1CE0101963C01E6
:10053000F6019381F70193FD859193FF81917F01EE
:10054000882309F4BAC1853239F493FD859193FF6C
:1005500081917F01853229F4B60190E00E947D04EB
:10056000E7CF912C212C312CFFE1F315D8F08B3201
:1005700079F038F4803279F08332A1F4232D2061B0
:100580001DC08D3261F0803369F4232D216016C0C7
:10059000832D8260382EE32DE4603E2E2AC0F32D99
:1005A000F8601DC037FC2DC020ED280F2A3040F028
:1005B0008E32B9F436FC81C1232D2064322E19C04D
:1005C00036FE06C08AE0989E200D1124922E11C09E
:1005D000EAE02E9E200D1124222EF32DF0623F2EF4
:1005E00008C08C3621F4832D8068382E02C08836EE
:1005F00041F4F70193FD859193FF81917F01811172
:10060000B3CF982F9F7D9554933028F40C5F1F4FE4
:100610009FE399830DC0833631F0833771F08335C2
:1006200009F059C021C0F801808189830E5F1F4FF6
:1006300088248394912C530113C02801F2E04F0EBB
:10064000511CF801A080B18036FE03C0692D70E016
:1006500002C06FEF7FEFC5010E9472044C0182015E
:10066000F32DFF773F2E16C0280122E0420E511CC9
:10067000F801A080B18036FE03C0692D70E002C091
:100680006FEF7FEFC5010E9467044C01F32DF06806
:100690003F2E820133FC1BC0822D90E08816990604
:1006A000B0F4B60180E290E00E947D042A94F4CF79
:1006B000F50137FC859137FE81915F01B60190E02D
:1006C0000E947D0421102A9421E0821A910881144D
:1006D000910471F7E8C0843611F0893641F5F801CC
:1006E00037FE07C060817181828193810C5F1F4F4B
:1006F00008C060817181072E000C880B990B0E5F7A
:100700001F4FF32DFF763F2E97FF09C090958095E0
:10071000709561957F4F8F4F9F4FF0683F2E2AE075
:1007200030E0A3010E94B904882E861845C08537A1
:1007300031F4232D2F7EB22E2AE030E025C0932DF8
:10074000997FB92E8F36C1F018F4883579F0B5C08D
:10075000803719F0883721F0B0C0E92FE061BE2E54
:10076000B4FE0DC0FB2DF460BF2E09C034FE0AC0DC
:10077000292F2660B22E06C028E030E005C020E117
:1007800030E002C020E132E0F801B7FE07C060812E
:100790007181828193810C5F1F4F06C060817181DE
:1007A00080E090E00E5F1F4FA3010E94B904882EE5
:1007B0008618FB2DFF773F2E36FE0DC0232D2E7F92
:1007C000A22E891458F434FE0BC032FC09C0832DCC
:1007D0008E7EA82E05C0B82CA32C03C0B82C01C057
:1007E000B92CA4FE0FC0FE01E80DF11D80818033FD
:1007F00021F49A2D997EA92E09C0A2FE06C0B394B9
:10080000B39404C08A2D867809F0B394A3FC11C078
:10081000A0FE06C0B21488F4280C922C9B180EC0BF
:10082000B21460F4B60180E290E00E947D04B394BB
:10083000F7CFB21418F42B1802C0982C212CA4FE68
:1008400010C0B60180E390E00E947D04A2FE17C0B4
:10085000A1FC03C088E790E002C088E590E0B60103
:100860000CC08A2D867859F0A1FE02C08BE201C02F
:1008700080E2A7FC8DE2B60190E00E947D0489141D
:1008800038F4B60180E390E00E947D049A94F7CF9B
:100890008A94F301E80DF11D8081B60190E00E9479
:1008A0007D048110F5CF222009F442CEB60180E20A
:1008B00090E00E947D042A94F6CFF601868197810C
:1008C00002C08FEF9FEF2B96E2E10C943305FC0101
:1008D0000590615070400110D8F7809590958E0F6B
:1008E0009F1F0895FC016150704001900110D8F7DE
:1008F000809590958E0F9F1F08950F931F93CF9310
:10090000DF93FB01238121FD03C08FEF9FEF2CC0FC
:1009100022FF16C046815781248135814217530733
:1009200044F4A081B1819D012F5F3F4F318320832B
:100930008C93268137812F5F3F4F3783268314C0E6
:100940008B01EC01FB010084F185E02D0995892BD9
:10095000E1F6D80116968D919C91179701961796FE
:100960009C938E931697CE01DF91CF911F910F919B
:100970000895FA01AA27283051F1203181F1E89435
:100980006F936E7F6E5F7F4F8F4F9F4FAF4FB1E082
:100990003ED0B4E03CD0670F781F891F9A1FA11D7D
:1009A000680F791F8A1F911DA11D6A0F711D811D7E
:1009B000911DA11D20D009F468943F912AE0269F43
:1009C00011243019305D3193DEF6CF010895462FA2
:1009D0004770405D4193B3E00FD0C9F7F6CF462F83
:1009E0004F70405D4A3318F0495D31FD40524193EC
:1009F00002D0A9F7EACFB4E0A695979587957795A9
:100A00006795BA95C9F700976105710508959B012F
:100A1000AC010A2E06945795479537952795BA95B8
:100A2000C9F7620F731F841F951FA01D08952F9291
:100A30003F924F925F926F927F928F929F92AF926E
:100A4000BF92CF92DF92EF92FF920F931F93CF93BB
:100A5000DF93CDB7DEB7CA1BDB0B0FB6F894DEBF52
:100A60000FBECDBF09942A88398848885F846E8478
:100A70007D848C849B84AA84B984C884DF80EE80C2
:100A8000FD800C811B81AA81B981CE0FD11D0FB6CB
:100A9000F894DEBF0FBECDBFED010895F894FFCFEF
:0C0AA0000A000A00FFFF2564200A000085
:00000001FF
