S00A00004C462E7372656388
S11300000C942A000C9447000C9447000C9447006D
S11300100C9447000C9447000C9447000C94470040
S11300200C9447000C9481000C9447000C944700F6
S11300300C9447000C9422010C9447000C94470044
S11300400C9447000C9447000C9447000C94470010
S11300500C94470011241FBECFE5D8E0DEBFCDBF0E
S113006010E0A0E6B0E0ECEEF2E002C005900D92E4
S1130070A636B107D9F720E0A6E6B0E001C01D928C
S1130080A23DB207E1F70E9449000C9474010C945C
S113009000000E940F010E94F7000E9453000E947A
S11300A05E007894FFCF8EB582608EBD8CEE9FEF9C
S11300B09DBD8CBD89B7846089BF0895D49AD59AB3
S11300C0D69AD79ADC98DD98DE98DF980895DC9864
S11300D0DD98089580916C00811103C0DC98DD9A4D
S11300E00895DC9ADD980895DF98DE98089580914C
S11300F06B00811103C0DE98DF9A0895DE9ADF98C1
S113010008951F920F920FB60F9211242F933F93CD
S11301104F935F936F937F938F939F93AF93BF930B
S1130120EF93FF93F8948CEE9FEF9DBD8CBD80916F
S1130130680090916900019690936900809368002B
S11301408091660090916700019690936700809378
S1130150660020916800309169008091620090915E
S113016063002817390711F40E9467008091680022
S113017090916900893E934054F080916A008823ED
S113018031F00E946A001092690010926800209178
S1130190660030916700809160009091610028179B
S11301A0390711F40E9474008091660090916700F1
S11301B0893E934054F080916A00882331F00E9474
S11301C0770010926700109266007894FF91EF9187
S11301D0BF91AF919F918F917F916F915F914F915B
S11301E03F912F910F900FBE0F901F901895909AEA
S11301F08898899A10BC87E689B98AB188618AB9D6
S1130200579A80B5866880BD80E090E0FC01E25991
S1130210FF4F1082019684369105C1F7089510921C
S11302206D0080E090E0FC01E259FF4F10820196DE
S113023084369105C1F78FEF9FEF9093650080930B
S1130240640008951F920F920FB60F9211248F939A
S11302509F93EF93FF9380916400909165000196C2
S11302609093650080936400809164009091650090
S11302708436910534F083E690E090936500809392
S11302806400E0916400F09165008CB1E259FF4F85
S11302908083E0916400F0916500E259FF4F808112
S11302A08D3049F0E0916400F0916500E259FF4F10
S11302B080818A3081F4E0916400F0916500E25914
S11302C0FF4F10828FEF9FEF90936500809364003F
S11302D081E080936D00FF91EF919F918F910F903A
S10F02E00FBE0F901F901895F894FFCFEC
S10902EC0A000A00FFFFF6
S9030000FC
