S00A00004C462E7372656388
S11300000C942A000C9447000C9447000C9447006D
S11300100C9447000C9447000C9447000C94470040
S11300200C9447000C94C1000C9447000C944700B6
S11300300C9447000C9454030C9447000C94470010
S11300400C9447000C9447000C9447000C94470010
S11300500C94470011241FBECFE5D8E0DEBFCDBF0E
S113006010E0A0E6B0E0E8E5F0E102C005900D92F2
S1130070A437B107D9F720E0A4E7B0E001C01D928E
S1130080AA3FB207E1F70E9449000C942A080C9495
S113009000000E9441030E9425030E9464000E9404
S11300A06F000E94BD02B89A78940E943E03882390
S11300B021F00E94A6030E9441030E94A00285E34E
S11300C08A95F1F70000F1CF8EB582608EBD8CEE7B
S11300D09FEF9DBD8CBD89B7846089BF08958C9ABC
S11300E08D9A8E9A8F9A9498959896989798089541
S11300F094989598089580917A00811103C09498FA
S1130100959A0895949A959808959798969808952D
S113011080917900811103C09698979A0895969AD0
S113012097980895883E23E0920714F087EE93E0B1
S11301301816190614F081E090E090936300809300
S113014062000895883E23E0920714F087EE93E05E
S11301501816190614F081E090E0909361008093E2
S11301606000089580937800089580937A00CB010D
S11301700E949200089580937900CB010E94A2000E
S113018008951F920F920FB60F9211242F933F934D
S11301904F935F936F937F938F939F93AF93BF938B
S11301A0EF93FF93F8948CEE9FEF9DBD8CBD8091EF
S11301B07600909177000196909377008093760073
S11301C080917400909175000196909375008093CE
S11301D074002091760030917700809162009091B4
S11301E063002817390711F40E9478008091760083
S11301F090917700893E934054F080917800882351
S113020031F00E947B0010927700109276002091CA
S113021074003091750080916000909161002817FE
S1130220390711F40E948500809174009091750043
S1130230893E934054F080917800882331F00E94E5
S1130240880010927500109274007894FF91EF91D9
S1130250BF91AF919F918F917F916F915F914F91DA
S11302603F912F910F900FBE0F901F9018954F92B2
S11302705F926F927F928F929F92AF92BF92CF9232
S1130280DF92EF92FF92CF93DF9300D000D000D0A3
S1130290CDB7DEB70E94C102BC01990F880B990B40
S11302A00E9408076B017C018091640090916500B5
S11302B09E838D83909369008093680020917F00D2
S11302C0309180004091810050918200C701B601B5
S11302D00E94BD0720918F003091900040919100C1
S11302E0509192000E94ED054B015C0160938F00D8
S11302F070939000809391009093920020E030E0FE
S113030046E153E40E94B80718166CF480E090E0CC
S1130310A6E1B3E480938F0090939000A0939100A2
S1130320B093920016C020E030E046E153ECC501E2
S1130330B4010E945906882364F480E090E0A6E1A9
S1130340B3EC80938F0090939000A0939100B093AE
S1130350920020916E0030916F0040917000509196
S11303607100C701B6010E94BD072B013C018090BA
S11303708B0090908C00A0908D00B0908E00A50111
S11303809401C501B4010E94ED059B01AC01C701B4
S1130390B6010E94EC05A70196010E94ED0520918B
S11303A08700309188004091890050918A000E9412
S11303B0ED0520917B0030917C0040917D005091AF
S11303C07E000E94BD0769837A838B839C8380921D
S11303D0870090928800A0928900B0928A00C0920F
S11303E08B00D0928C00E0928D00F0928E002091D0
S11303F08F00309190004091910050919200C30180
S1130400B2010E94ED0529813A814B815C810E94F1
S1130410ED054B015C01609383007093840080932D
S1130420850090938600E0906600F09067006D81EF
S11304307E816E0D7F1D072E000C880B990B0E9488
S113044008072B013C019B01AC01C501B4010E94CA
S1130450B807181644F440928300509284006092C6
S11304608500709286006D817E8171956195710918
S11304706E197F09072E000C880B990B0E94080740
S11304806B017C01209183003091840040918500B0
S1130490509186000E94B807181644F4C092830055
S11304A0D0928400E0928500F092860060918300EF
S11304B07091840080918500909186000E94D006FE
S11304C0CB0126960FB6F894DEBF0FBECDBFDF91E9
S11304D0CF91FF90EF90DF90CF90BF90AF909F901F
S11304E08F907F906F905F904F9008956091680017
S11304F0709169006817790744F49C01261B370B37
S1130500B90181E00E94BB000895681B790B80E06B
S11305100E94BB000895609168007091690068179B
S1130520790744F49C01261B370BB90181E00E9432
S1130530B5000895681B790B80E00E94B50008950A
S1130540CF93DF930E943701EC011816190644F487
S113055080E090E00E947602CE010E948B020AC0E5
S1130560882799278C1B9D0B0E94760280E090E0DF
S11305700E948B02DF91CF9108951ABAA99AA1988B
S11305800895CB9907C0109294001092930080E0D4
S113059090E00895CE9907C01092940010929300B1
S11305A081E090E00895CC9909C084E690E09093AE
S11305B094008093930088EC90E00895CD9909C04D
S11305C08CE99FEF909394008093930088E39FEFCE
S11305D00895CA9909C08CE291E0909394008093A5
S11305E0930080E991E00895999909C084ED9EEF04
S11305F0909394008093930080E79EEF0895C999A7
S113060007C088EE93E0909394008093930008953C
S1130610CF9907C088E19CEF909394008093930056
S113062008958091930090919400883E23E092076E
S113063034F489319C4F34F080E090E0089580EDEB
S113064097E0089580E398EF0895909A8898899A9E
S113065010BC87E689B98AB188618AB9579A80B58E
S1130660866880BD789480E090E0FC01EA56FF4FF4
S11306701082019684369105C1F708958091950002
S113068008951092950080E090E0FC01EA56FF4F37
S11306901082019684369105C1F78FEF9FEF9093F6
S11306A073008093720008951F920F920FB60F92F9
S11306B011248F939F93EF93FF93809172009091F5
S11306C0730001969093730080937200809172007E
S11306D0909173008436910534F083E690E0909312
S11306E0730080937200E0917200F09173008CB1FA
S11306F0EA56FF4F8083E0917200F0917300EA564E
S1130700FF4F80818D3049F0E0917200F0917300C9
S1130710EA56FF4F80818A3081F4E0917200F091B3
S11307207300EA56FF4F10828FEF9FEF9093730090
S11307308093720081E080939500FF91EF919F91E7
S11307408F910F900FBE0F901F901895CF92DF924C
S1130750EF92FF92CF93DF93809196008F3481F4D0
S1130760809197008E3461F4C09A8FE39CE90197DD
S1130770F1F700C00000C09881E00E94B20025C2D9
S1130780809196008F3481F480919700863461F4CF
S1130790C09A8FE39CE90197F1F700C00000C0986C
S11307A080E00E94B20011C280919600803599F5D4
S11307B080919700873579F5C09A8FE39CE901977A
S11307C0F1F700C00000C098E6E9F0E0828190E013
S11307D0C09744E6489F9001499F300D11249381AE
S11307E0892F90E0C097AC01440F551F880F991FC3
S11307F0880F991F880F991F840F951F820F931FCD
S1130800248130E020533109820F931F90936500B7
S113081080936400DAC180919600873509F064C042
S113082080919700803509F05FC0C09A8FE39CE9FE
S11308300197F1F700C00000C098C6E9D0E06A81D2
S113084070E060537109072E000C880B990B0E940D
S113085008076B017C016C8170E060537109072EFD
S1130860000C880B990B0E94080720E030E040E25E
S113087051E40E945E06A70196010E94ED056B01FA
S11308807C016D8170E060537109072E000C880BA8
S1130890990B0E94080720E030E048EC52E40E94E3
S11308A05E06A70196010E94ED056B017C016E8135
S11308B070E060537109072E000C880B990B0E949D
S11308C0080720E030E04AE754E40E945E06A701EE
S11308D096010E94ED0560936E0070936F00809303
S11308E070009093710071C180919600873509F072
S11308F064C080919700893409F05FC0C09A8FE387
S11309009CE90197F1F700C00000C098C6E9D0E067
S11309106A8170E060537109072E000C880B990BF3
S11309200E9408076B017C016C8170E060537109BF
S1130930072E000C880B990B0E94080720E030E07A
S113094040E251E40E945E06A70196010E94ED0573
S11309506B017C016D8170E060537109072E000CFE
S1130960880B990B0E94080720E030E048EC52E421
S11309700E945E06A70196010E94ED056B017C01B1
S11309806E8170E060537109072E000C880B990B7F
S11309900E94080720E030E04AE754E40E945E0623
S11309A0A70196010E94ED0560937F00709380007B
S11309B0809381009093820008C1809196008735CE
S11309C009F064C080919700843409F05FC0C09A34
S11309D08FE39CE90197F1F700C00000C098C6E9D5
S11309E0D0E06A8170E060537109072E000C880B17
S11309F0990B0E9408076B017C016C8170E06053C5
S1130A007109072E000C880B990B0E94080720E03F
S1130A1030E040E251E40E945E06A70196010E9484
S1130A20ED056B017C016D8170E060537109072E47
S1130A30000C880B990B0E94080720E030E048EC7A
S1130A4052E40E945E06A70196010E94ED056B0127
S1130A507C016E8170E060537109072E000C880BD5
S1130A60990B0E94080720E030E04AE754E40E9412
S1130A705E06A70196010E94ED0560937B007093CA
S1130A807C0080937D0090937E009FC080919600AF
S1130A90833509F064C080919700803509F05FC008
S1130AA0C09A8FE39CE90197F1F700C00000C09859
S1130AB0C6E9D0E06A8170E060537109072E000C2A
S1130AC0880B990B0E9408076B017C016C8170E014
S1130AD060537109072E000C880B990B0E940807BC
S1130AE020E030E040E251E40E945E06A701960156
S1130AF00E94ED056B017C016D8170E0605371090A
S1130B00072E000C880B990B0E94080720E030E0A8
S1130B1048EC52E40E945E06A70196010E94ED058E
S1130B206B017C016E8170E060537109072E000C2B
S1130B30880B990B0E94080720E030E04AE754E450
S1130B400E945E06A70196010E94ED0560936A006B
S1130B5070936B0080936C0090936D0036C080910D
S1130B609600833591F580919700843471F5C09A8D
S1130B708FE39CE90197F1F700C00000C098E6E913
S1130B80F0E0828190E0C09744E6489F9001499F3D
S1130B90300D11249381892F90E0C097AC01440F4C
S1130BA0551F880F991F880F991F880F991F840F4D
S1130BB0951F820F931F248130E020533109820F47
S1130BC0931F9093670080936600DF91CF91FF900D
S1130BD0EF90DF90CF9008955058BB27AA270E942A
S1130BE004060C947E070E94700738F00E94770771
S1130BF020F039F49F3F19F426F40C946D070EF499
S1130C00E095E7FB0C946707E92F0E948F0758F3E0
S1130C10BA17620773078407950720F079F4A6F5DD
S1130C200C94B1070EF4E0950B2EBA2FA02D0B01F6
S1130C30B90190010C01CA01A0011124FF27591B1D
S1130C4099F0593F50F4503E68F11A16F040A22F23
S1130C50232F342F4427585FF3CF46953795279594
S1130C60A795F0405395C9F77EF41F16BA0B620B93
S1130C70730B840BBAF09150A1F0FF0FBB1F661FDA
S1130C80771F881FC2F70EC0BA0F621F731F841F1D
S1130C9048F4879577956795B795F7959E3F08F043
S1130CA0B0CF9395880F08F09927EE0F9795879505
S1130CB008950E94430708F481E008950E94720693
S1130CC00C947E070E94770758F00E94700740F04A
S1130CD029F45F3F29F00C94670751110C94B20773
S1130CE00C946D070E948F0768F39923B1F3552381
S1130CF091F3951B550BBB27AA276217730784072B
S1130D0038F09F5F5F4F220F331F441FAA1FA9F3C0
S1130D1035D00E2E3AF0E0E832D091505040E695AE
S1130D20001CCAF72BD0FE2F29D0660F771F881F0F
S1130D30BB1F261737074807AB07B0E809F0BB0B02
S1130D40802DBF01FF2793585F4F3AF09E3F510516
S1130D5078F00C9467070C94B2075F3FE4F3983E75
S1130D60D4F3869577956795B795F7959F5FC9F7FF
S1130D70880F911D9695879597F90895E1E0660F80
S1130D80771F881FBB1F621773078407BA0720F0F9
S1130D90621B730B840BBA0BEE1F88F7E095089562
S1130DA00E94D7066894B1110C94B20708950E946A
S1130DB0970788F09F5798F0B92F9927B751B0F04B
S1130DC0E1F0660F771F881F991F1AF0BA95C9F7CB
S1130DD014C0B13091F00E94B107B1E008950C94B1
S1130DE0B107672F782F8827B85F39F0B93FCCF364
S1130DF0869577956795B395D9F73EF49095809548
S1130E00709561957F4F8F4F9F4F0895E89409C067
S1130E1097FB3EF490958095709561957F4F8F4F29
S1130E209F4F9923A9F0F92F96E9BB279395F6953F
S1130E30879577956795B795F111F8CFFAF4BB0FBD
S1130E4011F460FF1BC06F5F7F4F8F4F9F4F16C021
S1130E50882311F096E911C0772321F09EE8872FAB
S1130E60762F05C0662371F096E8862F70E060E067
S1130E702AF09A95660F771F881FDAF7880F9695E0
S1130E80879597F90895990F0008550FAA0BE0E884
S1130E90FEEF16161706E807F907C0F01216130638
S1130EA0E407F50798F0621B730B840B950B39F478
S1130EB00A2661F0232B242B252B21F408950A26DE
S1130EC009F4A140A6958FEF811D811D089597F91E
S1130ED09F6780E870E060E008959FEF80EC0895DC
S1130EE000240A9416161706180609060895002405
S1130EF00A9412161306140605060895092E03947F
S1130F00000C11F4882352F0BB0F40F4BF2B11F4F2
S1130F1060FF04C06F5F7F4F8F4F9F4F089557FD51
S1130F209058440F551F59F05F3F71F04795880F53
S1130F3097FB991F61F09F3F79F0879508951216EA
S1130F4013061406551FF2CF4695F1DF08C0161696
S1130F5017061806991FF1CF869571056105089447
S1130F600895E894BB2766277727CB0197F908955E
S1130F700E94430708F48FEF08950E94D0070C9451
S1130F807E070E94700738F00E94770720F09523AF
S1130F9011F00C9467070C946D0711240C94B2079C
S1130FA00E948F0770F3959FC1F3950F50E0551F72
S1130FB0629FF001729FBB27F00DB11D639FAA27AA
S1130FC0F00DB11DAA1F649F6627B00DA11D661FF9
S1130FD0829F2227B00DA11D621F739FB00DA11D1A
S1130FE0621F839FA00D611D221F749F3327A00DD4
S1130FF0611D231F849F600D211D822F762F6A2F70
S113100011249F5750409AF0F1F088234AF0EE0FD4
S1131010FF1FBB1F661F771F881F91505040A9F701
S11310209E3F510580F00C9467070C94B2075F3F14
S1131030E4F3983ED4F3869577956795B795F7953D
S1131040E7959F5FC1F7FE2B880F911D96958795B5
S10B105097F90895F894FFCF0D
S11310580A000A002C0164002C01CDCCCC3E9A99DC
S1071068193FFFFF2A
S9030000FC
