S01700004763634170706C69636174696F6E312E737265635B
S11300000C942A000C9447000C9447000C9447006D
S11300100C9447000C945F000C9447000C94470028
S11300200C9447000C94B4000C9447000C944700C3
S11300300C9447000C946B010C9447000C944700FB
S11300400C9447000C9447000C9447000C94470010
S11300500C94470011241FBECFE5D8E0DEBFCDBF0E
S113006010E0A0E6B0E0EEE7F3E002C005900D92E8
S1130070AC36B107D9F720E0ACE6B0E001C01D9280
S1130080A93DB207E1F70E946E000C94BD010C94E7
S1130090000094988C9A95988D9896988E9A979833
S11300A08F98089510926C0014BC85B5846085BD4A
S11300B085B5816085BD89B7806489BF08951F9225
S11300C00F920FB60F9211248F9381E080936C00EE
S11300D08F910F900FBE0F901F9018950E9458019A
S11300E00E942A010E9486000E9491000E945200F0
S11300F00E9449008FE39CE90197F1F700C00000DA
S113010086E690E00E9442017894FFCF8EB582602B
S11301108EBD8CEE9FEF9DBD8CBD89B7846089BF79
S11301200895D49AD59AD69AD79ADC98DD98DE9811
S1130130DF980895DC98DD9808958091730081110B
S113014003C0DC98DD9A0895DC9ADD980895DF9861
S1130150DE98089580917200811103C0DE98DF9AC1
S11301600895DE9ADF9808951F920F920FB60F92AA
S113017011242F933F934F935F936F937F938F93A8
S11301809F93AF93BF93EF93FF93F8948CEE9FEFFD
S11301909DBD8CBD80916F009091700001969093ED
S11301A0700080936F0080916D0090916E000196B5
S11301B090936E0080936D0020916F0030917000D9
S11301C080916200909163002817390711F40E940E
S11301D09A0080916F0090917000893E934054F092
S11301E080917100882331F00E949D00109270006C
S11301F010926F0020916D0030916E00809160002C
S1130200909161002817390711F40E94A70080918A
S11302106D0090916E00893E934054F0809171007E
S1130220882331F00E94AA0010926E0010926D0093
S11302307894FF91EF91BF91AF919F918F917F91AE
S11302406F915F914F913F912F910F900FBE0F903F
S11302501F901895909A8898899A10BC87E689B956
S11302608AB188618AB9579A80B5866880BD80E072
S113027090E0FC01EB58FF4F108201968436910503
S1130280C1F70895FC01DC010D900020E9F71197F6
S11302909D01281B390B121613064CF4280F391F25
S11302A05D9BFECF81918CB92E173F07C9F7089546
S11302B01092740080E090E0FC01EB58FF4F108234
S11302C0019684369105C1F78FEF9FEF90936500F7
S11302D08093640008951F920F920FB60F92112419
S11302E08F939F93EF93FF938091640090916500A7
S11302F001969093650080936400809164009091CE
S113030065008436910534F083E690E090936500AF
S113031080936400E0916400F09165008CB1EB5827
S1130320FF4F8083E0916400F0916500EB58FF4F2C
S113033080818D3049F0E0916400F0916500EB58C4
S1130340FF4F80818A3081F4E0916400F091650070
S1130350EB58FF4F10828FEF9FEF909365008093CF
S1130360640081E080937400FF91EF919F918F91DD
S11103700F900FBE0F901F901895F894FFCFBA
S10F037E0A000A00FFFF5374617274004F
S9030000FC
