:100000000C942A000C9447000C9447000C94470071
:100010000C9447000C945F000C9447000C9447002C
:100020000C9447000C94AA000C9447000C944700D1
:100030000C9447000C944B010C9447000C9447001F
:100040000C9447000C9447000C9447000C94470014
:100050000C94470011241FBECFE5D8E0DEBFCDBF12
:1000600010E0A0E6B0E0EEE3F3E002C005900D92F0
:10007000A636B107D9F720E0A6E6B0E001C01D9290
:10008000A33DB207E1F70E946E000C949D010C9411
:10009000000094988C9A95988D9896988E9A979837
:1000A0008F9808951092660014BC85B5846085BD54
:1000B00085B5816085BD89B7806489BF08951F9229
:1000C0000F920FB60F9211248F9381E080936600F8
:1000D0008F910F900FBE0F901F9018950E943801BE
:1000E0000E9420010E947C000E9487000E94520012
:1000F0000E9449007894FFCF8EB582608EBD8CEE51
:100100009FEF9DBD8CBD89B7846089BF0895D49A47
:10011000D59AD69AD79ADC98DD98DE98DF9808951C
:10012000DC98DD98089580916D00811103C0DC9802
:10013000DD9A0895DC9ADD980895DF98DE98089599
:1001400080916C00811103C0DE98DF9A0895DE9AD9
:10015000DF9808951F920F920FB60F9211242F93DC
:100160003F934F935F936F937F938F939F93AF933F
:10017000BF93EF93FF93F8948CEE9FEF9DBD8CBDE2
:100180008091690090916A00019690936A00809333
:1001900069008091670090916800019690936800D3
:1001A000809367002091690030916A00809162001D
:1001B000909163002817390711F40E9490008091F4
:1001C000690090916A00893E934054F080916B00E1
:1001D000882331F00E94930010926A001092690007
:1001E00020916700309168008091600090916100DB
:1001F0002817390711F40E949D00809167009091A3
:100200006800893E934054F080916B00882331F060
:100210000E94A00010926800109267007894FF91ED
:10022000EF91BF91AF919F918F917F916F915F916E
:100230004F913F912F910F900FBE0F901F901895E7
:10024000909A8898899A10BC87E689B98AB18861A2
:100250008AB9579A80B5866880BD80E090E0FC013D
:10026000E159FF4F1082019684369105C1F7089538
:1002700010926E0080E090E0FC01E159FF4F108287
:10028000019684369105C1F78FEF9FEF909365003B
:100290008093640008951F920F920FB60F9211245D
:1002A0008F939F93EF93FF938091640090916500EB
:1002B0000196909365008093640080916400909112
:1002C00065008436910534F083E690E090936500F4
:1002D00080936400E0916400F09165008CB1E15975
:1002E000FF4F8083E0916400F0916500E159FF4F7A
:1002F00080818D3049F0E0916400F0916500E15912
:10030000FF4F80818A3081F4E0916400F0916500B4
:10031000E159FF4F10828FEF9FEF9093650080931C
:10032000640081E080936E00FF91EF919F918F9127
:0E0330000F900FBE0F901F901895F894FFCFFE
:06033E000A000A00FFFFA7
:00000001FF
